{
  "contractName": "MyNFTCollection",
  "abi": [
    {
      "inputs": [],
      "stateMutability": "nonpayable",
      "type": "constructor"
    },
    {
      "anonymous": false,
      "inputs": [
        {
          "indexed": true,
          "internalType": "address",
          "name": "owner",
          "type": "address"
        },
        {
          "indexed": true,
          "internalType": "address",
          "name": "approved",
          "type": "address"
        },
        {
          "indexed": true,
          "internalType": "uint256",
          "name": "tokenId",
          "type": "uint256"
        }
      ],
      "name": "Approval",
      "type": "event"
    },
    {
      "anonymous": false,
      "inputs": [
        {
          "indexed": true,
          "internalType": "address",
          "name": "owner",
          "type": "address"
        },
        {
          "indexed": true,
          "internalType": "address",
          "name": "operator",
          "type": "address"
        },
        {
          "indexed": false,
          "internalType": "bool",
          "name": "approved",
          "type": "bool"
        }
      ],
      "name": "ApprovalForAll",
      "type": "event"
    },
    {
      "anonymous": false,
      "inputs": [
        {
          "indexed": true,
          "internalType": "address",
          "name": "from",
          "type": "address"
        },
        {
          "indexed": true,
          "internalType": "address",
          "name": "to",
          "type": "address"
        },
        {
          "indexed": true,
          "internalType": "uint256",
          "name": "tokenId",
          "type": "uint256"
        }
      ],
      "name": "Transfer",
      "type": "event"
    },
    {
      "inputs": [],
      "name": "CREATOR",
      "outputs": [
        {
          "internalType": "address",
          "name": "",
          "type": "address"
        }
      ],
      "stateMutability": "view",
      "type": "function",
      "constant": true
    },
    {
      "inputs": [],
      "name": "MAX_ELEMENTS",
      "outputs": [
        {
          "internalType": "uint256",
          "name": "",
          "type": "uint256"
        }
      ],
      "stateMutability": "view",
      "type": "function",
      "constant": true
    },
    {
      "inputs": [],
      "name": "PRICE",
      "outputs": [
        {
          "internalType": "uint256",
          "name": "",
          "type": "uint256"
        }
      ],
      "stateMutability": "view",
      "type": "function",
      "constant": true
    },
    {
      "inputs": [
        {
          "internalType": "address",
          "name": "to",
          "type": "address"
        },
        {
          "internalType": "uint256",
          "name": "tokenId",
          "type": "uint256"
        }
      ],
      "name": "approve",
      "outputs": [],
      "stateMutability": "nonpayable",
      "type": "function"
    },
    {
      "inputs": [
        {
          "internalType": "address",
          "name": "owner",
          "type": "address"
        }
      ],
      "name": "balanceOf",
      "outputs": [
        {
          "internalType": "uint256",
          "name": "",
          "type": "uint256"
        }
      ],
      "stateMutability": "view",
      "type": "function",
      "constant": true
    },
    {
      "inputs": [
        {
          "internalType": "uint256",
          "name": "tokenId",
          "type": "uint256"
        }
      ],
      "name": "getApproved",
      "outputs": [
        {
          "internalType": "address",
          "name": "",
          "type": "address"
        }
      ],
      "stateMutability": "view",
      "type": "function",
      "constant": true
    },
    {
      "inputs": [
        {
          "internalType": "address",
          "name": "owner",
          "type": "address"
        },
        {
          "internalType": "address",
          "name": "operator",
          "type": "address"
        }
      ],
      "name": "isApprovedForAll",
      "outputs": [
        {
          "internalType": "bool",
          "name": "",
          "type": "bool"
        }
      ],
      "stateMutability": "view",
      "type": "function",
      "constant": true
    },
    {
      "inputs": [],
      "name": "name",
      "outputs": [
        {
          "internalType": "string",
          "name": "",
          "type": "string"
        }
      ],
      "stateMutability": "view",
      "type": "function",
      "constant": true
    },
    {
      "inputs": [
        {
          "internalType": "uint256",
          "name": "tokenId",
          "type": "uint256"
        }
      ],
      "name": "ownerOf",
      "outputs": [
        {
          "internalType": "address",
          "name": "",
          "type": "address"
        }
      ],
      "stateMutability": "view",
      "type": "function",
      "constant": true
    },
    {
      "inputs": [
        {
          "internalType": "address",
          "name": "from",
          "type": "address"
        },
        {
          "internalType": "address",
          "name": "to",
          "type": "address"
        },
        {
          "internalType": "uint256",
          "name": "tokenId",
          "type": "uint256"
        }
      ],
      "name": "safeTransferFrom",
      "outputs": [],
      "stateMutability": "nonpayable",
      "type": "function"
    },
    {
      "inputs": [
        {
          "internalType": "address",
          "name": "from",
          "type": "address"
        },
        {
          "internalType": "address",
          "name": "to",
          "type": "address"
        },
        {
          "internalType": "uint256",
          "name": "tokenId",
          "type": "uint256"
        },
        {
          "internalType": "bytes",
          "name": "_data",
          "type": "bytes"
        }
      ],
      "name": "safeTransferFrom",
      "outputs": [],
      "stateMutability": "nonpayable",
      "type": "function"
    },
    {
      "inputs": [
        {
          "internalType": "address",
          "name": "operator",
          "type": "address"
        },
        {
          "internalType": "bool",
          "name": "approved",
          "type": "bool"
        }
      ],
      "name": "setApprovalForAll",
      "outputs": [],
      "stateMutability": "nonpayable",
      "type": "function"
    },
    {
      "inputs": [
        {
          "internalType": "bytes4",
          "name": "interfaceId",
          "type": "bytes4"
        }
      ],
      "name": "supportsInterface",
      "outputs": [
        {
          "internalType": "bool",
          "name": "",
          "type": "bool"
        }
      ],
      "stateMutability": "view",
      "type": "function",
      "constant": true
    },
    {
      "inputs": [],
      "name": "symbol",
      "outputs": [
        {
          "internalType": "string",
          "name": "",
          "type": "string"
        }
      ],
      "stateMutability": "view",
      "type": "function",
      "constant": true
    },
    {
      "inputs": [
        {
          "internalType": "uint256",
          "name": "index",
          "type": "uint256"
        }
      ],
      "name": "tokenByIndex",
      "outputs": [
        {
          "internalType": "uint256",
          "name": "",
          "type": "uint256"
        }
      ],
      "stateMutability": "view",
      "type": "function",
      "constant": true
    },
    {
      "inputs": [
        {
          "internalType": "address",
          "name": "owner",
          "type": "address"
        },
        {
          "internalType": "uint256",
          "name": "index",
          "type": "uint256"
        }
      ],
      "name": "tokenOfOwnerByIndex",
      "outputs": [
        {
          "internalType": "uint256",
          "name": "",
          "type": "uint256"
        }
      ],
      "stateMutability": "view",
      "type": "function",
      "constant": true
    },
    {
      "inputs": [
        {
          "internalType": "uint256",
          "name": "tokenId",
          "type": "uint256"
        }
      ],
      "name": "tokenURI",
      "outputs": [
        {
          "internalType": "string",
          "name": "",
          "type": "string"
        }
      ],
      "stateMutability": "view",
      "type": "function",
      "constant": true
    },
    {
      "inputs": [],
      "name": "token_count",
      "outputs": [
        {
          "internalType": "uint256",
          "name": "",
          "type": "uint256"
        }
      ],
      "stateMutability": "view",
      "type": "function",
      "constant": true
    },
    {
      "inputs": [],
      "name": "totalSupply",
      "outputs": [
        {
          "internalType": "uint256",
          "name": "",
          "type": "uint256"
        }
      ],
      "stateMutability": "view",
      "type": "function",
      "constant": true
    },
    {
      "inputs": [
        {
          "internalType": "address",
          "name": "from",
          "type": "address"
        },
        {
          "internalType": "address",
          "name": "to",
          "type": "address"
        },
        {
          "internalType": "uint256",
          "name": "tokenId",
          "type": "uint256"
        }
      ],
      "name": "transferFrom",
      "outputs": [],
      "stateMutability": "nonpayable",
      "type": "function"
    },
    {
      "inputs": [],
      "name": "totalMint",
      "outputs": [
        {
          "internalType": "uint256",
          "name": "",
          "type": "uint256"
        }
      ],
      "stateMutability": "view",
      "type": "function",
      "constant": true
    },
    {
      "inputs": [
        {
          "internalType": "address",
          "name": "_to",
          "type": "address"
        },
        {
          "internalType": "uint256",
          "name": "_count",
          "type": "uint256"
        }
      ],
      "name": "mint",
      "outputs": [],
      "stateMutability": "payable",
      "type": "function",
      "payable": true
    },
    {
      "inputs": [],
      "name": "withdrawAll",
      "outputs": [],
      "stateMutability": "nonpayable",
      "type": "function"
    }
  ],
  "bytecode": "0x60806040526005600a55662386f26fc10000600b5573e85513007cb0d8aa90e7950e8ba3e1ed6d5a0c79600c60006101000a81548173ffffffffffffffffffffffffffffffffffffffff021916908373ffffffffffffffffffffffffffffffffffffffff1602179055503480156200007657600080fd5b506040518060400160405280600681526020017f4d79204e465400000000000000000000000000000000000000000000000000008152506040518060400160405280600481526020017f4d4e4654000000000000000000000000000000000000000000000000000000008152508160009080519060200190620000fb9291906200011d565b508060019080519060200190620001149291906200011d565b50505062000232565b8280546200012b90620001fc565b90600052602060002090601f0160209004810192826200014f57600085556200019b565b82601f106200016a57805160ff19168380011785556200019b565b828001600101855582156200019b579182015b828111156200019a5782518255916020019190600101906200017d565b5b509050620001aa9190620001ae565b5090565b5b80821115620001c9576000816000905550600101620001af565b5090565b7f4e487b7100000000000000000000000000000000000000000000000000000000600052602260045260246000fd5b600060028204905060018216806200021557607f821691505b602082108114156200022c576200022b620001cd565b5b50919050565b6135f180620002426000396000f3fe6080604052600436106101405760003560e01c80634f6ccce7116100b657806395d89b411161006f57806395d89b4114610463578063a22cb4651461048e578063b88d4fde146104b7578063c87b56dd146104e0578063e4fbb6091461051d578063e985e9c51461054857610140565b80634f6ccce71461033f57806359a7715a1461037c5780636352211e146103a757806370a08231146103e4578063853828b6146104215780638d859f3e1461043857610140565b806323b161ab1161010857806323b161ab1461023e57806323b872dd146102695780632f745c59146102925780633502a716146102cf57806340c10f19146102fa57806342842e0e1461031657610140565b806301ffc9a71461014557806306fdde0314610182578063081812fc146101ad578063095ea7b3146101ea57806318160ddd14610213575b600080fd5b34801561015157600080fd5b5061016c600480360381019061016791906121d1565b610585565b6040516101799190612219565b60405180910390f35b34801561018e57600080fd5b506101976105ff565b6040516101a491906122cd565b60405180910390f35b3480156101b957600080fd5b506101d460048036038101906101cf9190612325565b610691565b6040516101e19190612393565b60405180910390f35b3480156101f657600080fd5b50610211600480360381019061020c91906123da565b610716565b005b34801561021f57600080fd5b5061022861082e565b6040516102359190612429565b60405180910390f35b34801561024a57600080fd5b5061025361083b565b6040516102609190612429565b60405180910390f35b34801561027557600080fd5b50610290600480360381019061028b9190612444565b610841565b005b34801561029e57600080fd5b506102b960048036038101906102b491906123da565b6108a1565b6040516102c69190612429565b60405180910390f35b3480156102db57600080fd5b506102e4610946565b6040516102f19190612429565b60405180910390f35b610314600480360381019061030f91906123da565b61094c565b005b34801561032257600080fd5b5061033d60048036038101906103389190612444565b610a6a565b005b34801561034b57600080fd5b5061036660048036038101906103619190612325565b610a8a565b6040516103739190612429565b60405180910390f35b34801561038857600080fd5b50610391610afb565b60405161039e9190612429565b60405180910390f35b3480156103b357600080fd5b506103ce60048036038101906103c99190612325565b610b0a565b6040516103db9190612393565b60405180910390f35b3480156103f057600080fd5b5061040b60048036038101906104069190612497565b610bbc565b6040516104189190612429565b60405180910390f35b34801561042d57600080fd5b50610436610c74565b005b34801561044457600080fd5b5061044d610d45565b60405161045a9190612429565b60405180910390f35b34801561046f57600080fd5b50610478610d4b565b60405161048591906122cd565b60405180910390f35b34801561049a57600080fd5b506104b560048036038101906104b091906124f0565b610ddd565b005b3480156104c357600080fd5b506104de60048036038101906104d99190612665565b610df3565b005b3480156104ec57600080fd5b5061050760048036038101906105029190612325565b610e55565b60405161051491906122cd565b60405180910390f35b34801561052957600080fd5b50610532610efc565b60405161053f9190612393565b60405180910390f35b34801561055457600080fd5b5061056f600480360381019061056a91906126e8565b610f22565b60405161057c9190612219565b60405180910390f35b60007f780e9d63000000000000000000000000000000000000000000000000000000007bffffffffffffffffffffffffffffffffffffffffffffffffffffffff1916827bffffffffffffffffffffffffffffffffffffffffffffffffffffffff191614806105f857506105f782610fb6565b5b9050919050565b60606000805461060e90612757565b80601f016020809104026020016040519081016040528092919081815260200182805461063a90612757565b80156106875780601f1061065c57610100808354040283529160200191610687565b820191906000526020600020905b81548152906001019060200180831161066a57829003601f168201915b5050505050905090565b600061069c82611098565b6106db576040517f08c379a00000000000000000000000000000000000000000000000000000000081526004016106d2906127fb565b60405180910390fd5b6004600083815260200190815260200160002060009054906101000a900473ffffffffffffffffffffffffffffffffffffffff169050919050565b600061072182610b0a565b90508073ffffffffffffffffffffffffffffffffffffffff168373ffffffffffffffffffffffffffffffffffffffff161415610792576040517f08c379a00000000000000000000000000000000000000000000000000000000081526004016107899061288d565b60405180910390fd5b8073ffffffffffffffffffffffffffffffffffffffff166107b1611104565b73ffffffffffffffffffffffffffffffffffffffff1614806107e057506107df816107da611104565b610f22565b5b61081f576040517f08c379a00000000000000000000000000000000000000000000000000000000081526004016108169061291f565b60405180910390fd5b610829838361110c565b505050565b6000600880549050905090565b600d5481565b61085261084c611104565b826111c5565b610891576040517f08c379a0000000000000000000000000000000000000000000000000000000008152600401610888906129b1565b60405180910390fd5b61089c8383836112a3565b505050565b60006108ac83610bbc565b82106108ed576040517f08c379a00000000000000000000000000000000000000000000000000000000081526004016108e490612a43565b60405180910390fd5b600660008473ffffffffffffffffffffffffffffffffffffffff1673ffffffffffffffffffffffffffffffffffffffff168152602001908152602001600020600083815260200190815260200160002054905092915050565b600a5481565b600061095661150a565b9050600a5482826109679190612a92565b11156109a8576040517f08c379a000000000000000000000000000000000000000000000000000000000815260040161099f90612b34565b60405180910390fd5b600a548111156109ed576040517f08c379a00000000000000000000000000000000000000000000000000000000081526004016109e490612ba0565b60405180910390fd5b81600b546109fb9190612bc0565b341015610a3d576040517f08c379a0000000000000000000000000000000000000000000000000000000008152600401610a3490612c66565b60405180910390fd5b60005b82811015610a6457610a518461151b565b8080610a5c90612c86565b915050610a40565b50505050565b610a8583838360405180602001604052806000815250610df3565b505050565b6000610a9461082e565b8210610ad5576040517f08c379a0000000000000000000000000000000000000000000000000000000008152600401610acc90612d41565b60405180910390fd5b60088281548110610ae957610ae8612d61565b5b90600052602060002001549050919050565b6000610b0561150a565b905090565b6000806002600084815260200190815260200160002060009054906101000a900473ffffffffffffffffffffffffffffffffffffffff169050600073ffffffffffffffffffffffffffffffffffffffff168173ffffffffffffffffffffffffffffffffffffffff161415610bb3576040517f08c379a0000000000000000000000000000000000000000000000000000000008152600401610baa90612e02565b60405180910390fd5b80915050919050565b60008073ffffffffffffffffffffffffffffffffffffffff168273ffffffffffffffffffffffffffffffffffffffff161415610c2d576040517f08c379a0000000000000000000000000000000000000000000000000000000008152600401610c2490612e94565b60405180910390fd5b600360008373ffffffffffffffffffffffffffffffffffffffff1673ffffffffffffffffffffffffffffffffffffffff168152602001908152602001600020549050919050565b6000600c60009054906101000a900473ffffffffffffffffffffffffffffffffffffffff1673ffffffffffffffffffffffffffffffffffffffff1647604051610cbc90612ee5565b60006040518083038185875af1925050503d8060008114610cf9576040519150601f19603f3d011682016040523d82523d6000602084013e610cfe565b606091505b5050905080610d42576040517f08c379a0000000000000000000000000000000000000000000000000000000008152600401610d3990612f46565b60405180910390fd5b50565b600b5481565b606060018054610d5a90612757565b80601f0160208091040260200160405190810160405280929190818152602001828054610d8690612757565b8015610dd35780601f10610da857610100808354040283529160200191610dd3565b820191906000526020600020905b815481529060010190602001808311610db657829003601f168201915b5050505050905090565b610def610de8611104565b838361153f565b5050565b610e04610dfe611104565b836111c5565b610e43576040517f08c379a0000000000000000000000000000000000000000000000000000000008152600401610e3a906129b1565b60405180910390fd5b610e4f848484846116ac565b50505050565b6060610e6082611098565b610e9f576040517f08c379a0000000000000000000000000000000000000000000000000000000008152600401610e9690612fd8565b60405180910390fd5b6000610ea9611708565b90506000815111610ec95760405180602001604052806000815250610ef4565b80610ed384611745565b604051602001610ee4929190613034565b6040516020818303038152906040525b915050919050565b600c60009054906101000a900473ffffffffffffffffffffffffffffffffffffffff1681565b6000600560008473ffffffffffffffffffffffffffffffffffffffff1673ffffffffffffffffffffffffffffffffffffffff16815260200190815260200160002060008373ffffffffffffffffffffffffffffffffffffffff1673ffffffffffffffffffffffffffffffffffffffff16815260200190815260200160002060009054906101000a900460ff16905092915050565b60007f80ac58cd000000000000000000000000000000000000000000000000000000007bffffffffffffffffffffffffffffffffffffffffffffffffffffffff1916827bffffffffffffffffffffffffffffffffffffffffffffffffffffffff1916148061108157507f5b5e139f000000000000000000000000000000000000000000000000000000007bffffffffffffffffffffffffffffffffffffffffffffffffffffffff1916827bffffffffffffffffffffffffffffffffffffffffffffffffffffffff1916145b806110915750611090826118a6565b5b9050919050565b60008073ffffffffffffffffffffffffffffffffffffffff166002600084815260200190815260200160002060009054906101000a900473ffffffffffffffffffffffffffffffffffffffff1673ffffffffffffffffffffffffffffffffffffffff1614159050919050565b600033905090565b816004600083815260200190815260200160002060006101000a81548173ffffffffffffffffffffffffffffffffffffffff021916908373ffffffffffffffffffffffffffffffffffffffff160217905550808273ffffffffffffffffffffffffffffffffffffffff1661117f83610b0a565b73ffffffffffffffffffffffffffffffffffffffff167f8c5be1e5ebec7d5bd14f71427d1e84f3dd0314c0f7b2291e5b200ac8c7c3b92560405160405180910390a45050565b60006111d082611098565b61120f576040517f08c379a0000000000000000000000000000000000000000000000000000000008152600401611206906130ca565b60405180910390fd5b600061121a83610b0a565b90508073ffffffffffffffffffffffffffffffffffffffff168473ffffffffffffffffffffffffffffffffffffffff16148061128957508373ffffffffffffffffffffffffffffffffffffffff1661127184610691565b73ffffffffffffffffffffffffffffffffffffffff16145b8061129a57506112998185610f22565b5b91505092915050565b8273ffffffffffffffffffffffffffffffffffffffff166112c382610b0a565b73ffffffffffffffffffffffffffffffffffffffff1614611319576040517f08c379a00000000000000000000000000000000000000000000000000000000081526004016113109061315c565b60405180910390fd5b600073ffffffffffffffffffffffffffffffffffffffff168273ffffffffffffffffffffffffffffffffffffffff161415611389576040517f08c379a0000000000000000000000000000000000000000000000000000000008152600401611380906131ee565b60405180910390fd5b611394838383611910565b61139f60008261110c565b6001600360008573ffffffffffffffffffffffffffffffffffffffff1673ffffffffffffffffffffffffffffffffffffffff16815260200190815260200160002060008282546113ef919061320e565b925050819055506001600360008473ffffffffffffffffffffffffffffffffffffffff1673ffffffffffffffffffffffffffffffffffffffff16815260200190815260200160002060008282546114469190612a92565b92505081905550816002600083815260200190815260200160002060006101000a81548173ffffffffffffffffffffffffffffffffffffffff021916908373ffffffffffffffffffffffffffffffffffffffff160217905550808273ffffffffffffffffffffffffffffffffffffffff168473ffffffffffffffffffffffffffffffffffffffff167fddf252ad1be2c89b69c2b068fc378daa952ba7f163c4a11628f55a4df523b3ef60405160405180910390a4611505838383611a24565b505050565b6000611516600e611a29565b905090565b600061152561150a565b9050611531600e611a37565b61153b8282611a4d565b5050565b8173ffffffffffffffffffffffffffffffffffffffff168373ffffffffffffffffffffffffffffffffffffffff1614156115ae576040517f08c379a00000000000000000000000000000000000000000000000000000000081526004016115a59061328e565b60405180910390fd5b80600560008573ffffffffffffffffffffffffffffffffffffffff1673ffffffffffffffffffffffffffffffffffffffff16815260200190815260200160002060008473ffffffffffffffffffffffffffffffffffffffff1673ffffffffffffffffffffffffffffffffffffffff16815260200190815260200160002060006101000a81548160ff0219169083151502179055508173ffffffffffffffffffffffffffffffffffffffff168373ffffffffffffffffffffffffffffffffffffffff167f17307eab39ab6107e8899845ad3d59bd9653f200f220920489ca2b5937696c318360405161169f9190612219565b60405180910390a3505050565b6116b78484846112a3565b6116c384848484611a6b565b611702576040517f08c379a00000000000000000000000000000000000000000000000000000000081526004016116f990613320565b60405180910390fd5b50505050565b60606040518060400160405280600d81526020017f736974656461636f6c6563616f00000000000000000000000000000000000000815250905090565b6060600082141561178d576040518060400160405280600181526020017f300000000000000000000000000000000000000000000000000000000000000081525090506118a1565b600082905060005b600082146117bf5780806117a890612c86565b915050600a826117b8919061336f565b9150611795565b60008167ffffffffffffffff8111156117db576117da61253a565b5b6040519080825280601f01601f19166020018201604052801561180d5781602001600182028036833780820191505090505b5090505b6000851461189a57600182611826919061320e565b9150600a8561183591906133a0565b60306118419190612a92565b60f81b81838151811061185757611856612d61565b5b60200101907effffffffffffffffffffffffffffffffffffffffffffffffffffffffffffff1916908160001a905350600a85611893919061336f565b9450611811565b8093505050505b919050565b60007f01ffc9a7000000000000000000000000000000000000000000000000000000007bffffffffffffffffffffffffffffffffffffffffffffffffffffffff1916827bffffffffffffffffffffffffffffffffffffffffffffffffffffffff1916149050919050565b61191b838383611c02565b600073ffffffffffffffffffffffffffffffffffffffff168373ffffffffffffffffffffffffffffffffffffffff16141561195e5761195981611c07565b61199d565b8173ffffffffffffffffffffffffffffffffffffffff168373ffffffffffffffffffffffffffffffffffffffff161461199c5761199b8382611c50565b5b5b600073ffffffffffffffffffffffffffffffffffffffff168273ffffffffffffffffffffffffffffffffffffffff1614156119e0576119db81611dbd565b611a1f565b8273ffffffffffffffffffffffffffffffffffffffff168273ffffffffffffffffffffffffffffffffffffffff1614611a1e57611a1d8282611e8e565b5b5b505050565b505050565b600081600001549050919050565b6001816000016000828254019250508190555050565b611a67828260405180602001604052806000815250611f0d565b5050565b6000611a8c8473ffffffffffffffffffffffffffffffffffffffff16611f68565b15611bf5578373ffffffffffffffffffffffffffffffffffffffff1663150b7a02611ab5611104565b8786866040518563ffffffff1660e01b8152600401611ad79493929190613426565b602060405180830381600087803b158015611af157600080fd5b505af1925050508015611b2257506040513d601f19601f82011682018060405250810190611b1f9190613487565b60015b611ba5573d8060008114611b52576040519150601f19603f3d011682016040523d82523d6000602084013e611b57565b606091505b50600081511415611b9d576040517f08c379a0000000000000000000000000000000000000000000000000000000008152600401611b9490613320565b60405180910390fd5b805181602001fd5b63150b7a0260e01b7bffffffffffffffffffffffffffffffffffffffffffffffffffffffff1916817bffffffffffffffffffffffffffffffffffffffffffffffffffffffff191614915050611bfa565b600190505b949350505050565b505050565b6008805490506009600083815260200190815260200160002081905550600881908060018154018082558091505060019003906000526020600020016000909190919091505550565b60006001611c5d84610bbc565b611c67919061320e565b9050600060076000848152602001908152602001600020549050818114611d4c576000600660008673ffffffffffffffffffffffffffffffffffffffff1673ffffffffffffffffffffffffffffffffffffffff168152602001908152602001600020600084815260200190815260200160002054905080600660008773ffffffffffffffffffffffffffffffffffffffff1673ffffffffffffffffffffffffffffffffffffffff168152602001908152602001600020600084815260200190815260200160002081905550816007600083815260200190815260200160002081905550505b6007600084815260200190815260200160002060009055600660008573ffffffffffffffffffffffffffffffffffffffff1673ffffffffffffffffffffffffffffffffffffffff16815260200190815260200160002060008381526020019081526020016000206000905550505050565b60006001600880549050611dd1919061320e565b9050600060096000848152602001908152602001600020549050600060088381548110611e0157611e00612d61565b5b906000526020600020015490508060088381548110611e2357611e22612d61565b5b906000526020600020018190555081600960008381526020019081526020016000208190555060096000858152602001908152602001600020600090556008805480611e7257611e716134b4565b5b6001900381819060005260206000200160009055905550505050565b6000611e9983610bbc565b905081600660008573ffffffffffffffffffffffffffffffffffffffff1673ffffffffffffffffffffffffffffffffffffffff168152602001908152602001600020600083815260200190815260200160002081905550806007600084815260200190815260200160002081905550505050565b611f178383611f8b565b611f246000848484611a6b565b611f63576040517f08c379a0000000000000000000000000000000000000000000000000000000008152600401611f5a90613320565b60405180910390fd5b505050565b6000808273ffffffffffffffffffffffffffffffffffffffff163b119050919050565b600073ffffffffffffffffffffffffffffffffffffffff168273ffffffffffffffffffffffffffffffffffffffff161415611ffb576040517f08c379a0000000000000000000000000000000000000000000000000000000008152600401611ff29061352f565b60405180910390fd5b61200481611098565b15612044576040517f08c379a000000000000000000000000000000000000000000000000000000000815260040161203b9061359b565b60405180910390fd5b61205060008383611910565b6001600360008473ffffffffffffffffffffffffffffffffffffffff1673ffffffffffffffffffffffffffffffffffffffff16815260200190815260200160002060008282546120a09190612a92565b92505081905550816002600083815260200190815260200160002060006101000a81548173ffffffffffffffffffffffffffffffffffffffff021916908373ffffffffffffffffffffffffffffffffffffffff160217905550808273ffffffffffffffffffffffffffffffffffffffff16600073ffffffffffffffffffffffffffffffffffffffff167fddf252ad1be2c89b69c2b068fc378daa952ba7f163c4a11628f55a4df523b3ef60405160405180910390a461216160008383611a24565b5050565b6000604051905090565b600080fd5b600080fd5b60007fffffffff0000000000000000000000000000000000000000000000000000000082169050919050565b6121ae81612179565b81146121b957600080fd5b50565b6000813590506121cb816121a5565b92915050565b6000602082840312156121e7576121e661216f565b5b60006121f5848285016121bc565b91505092915050565b60008115159050919050565b612213816121fe565b82525050565b600060208201905061222e600083018461220a565b92915050565b600081519050919050565b600082825260208201905092915050565b60005b8381101561226e578082015181840152602081019050612253565b8381111561227d576000848401525b50505050565b6000601f19601f8301169050919050565b600061229f82612234565b6122a9818561223f565b93506122b9818560208601612250565b6122c281612283565b840191505092915050565b600060208201905081810360008301526122e78184612294565b905092915050565b6000819050919050565b612302816122ef565b811461230d57600080fd5b50565b60008135905061231f816122f9565b92915050565b60006020828403121561233b5761233a61216f565b5b600061234984828501612310565b91505092915050565b600073ffffffffffffffffffffffffffffffffffffffff82169050919050565b600061237d82612352565b9050919050565b61238d81612372565b82525050565b60006020820190506123a86000830184612384565b92915050565b6123b781612372565b81146123c257600080fd5b50565b6000813590506123d4816123ae565b92915050565b600080604083850312156123f1576123f061216f565b5b60006123ff858286016123c5565b925050602061241085828601612310565b9150509250929050565b612423816122ef565b82525050565b600060208201905061243e600083018461241a565b92915050565b60008060006060848603121561245d5761245c61216f565b5b600061246b868287016123c5565b935050602061247c868287016123c5565b925050604061248d86828701612310565b9150509250925092565b6000602082840312156124ad576124ac61216f565b5b60006124bb848285016123c5565b91505092915050565b6124cd816121fe565b81146124d857600080fd5b50565b6000813590506124ea816124c4565b92915050565b600080604083850312156125075761250661216f565b5b6000612515858286016123c5565b9250506020612526858286016124db565b9150509250929050565b600080fd5b600080fd5b7f4e487b7100000000000000000000000000000000000000000000000000000000600052604160045260246000fd5b61257282612283565b810181811067ffffffffffffffff821117156125915761259061253a565b5b80604052505050565b60006125a4612165565b90506125b08282612569565b919050565b600067ffffffffffffffff8211156125d0576125cf61253a565b5b6125d982612283565b9050602081019050919050565b82818337600083830152505050565b6000612608612603846125b5565b61259a565b90508281526020810184848401111561262457612623612535565b5b61262f8482856125e6565b509392505050565b600082601f83011261264c5761264b612530565b5b813561265c8482602086016125f5565b91505092915050565b6000806000806080858703121561267f5761267e61216f565b5b600061268d878288016123c5565b945050602061269e878288016123c5565b93505060406126af87828801612310565b925050606085013567ffffffffffffffff8111156126d0576126cf612174565b5b6126dc87828801612637565b91505092959194509250565b600080604083850312156126ff576126fe61216f565b5b600061270d858286016123c5565b925050602061271e858286016123c5565b9150509250929050565b7f4e487b7100000000000000000000000000000000000000000000000000000000600052602260045260246000fd5b6000600282049050600182168061276f57607f821691505b6020821081141561278357612782612728565b5b50919050565b7f4552433732313a20617070726f76656420717565727920666f72206e6f6e657860008201527f697374656e7420746f6b656e0000000000000000000000000000000000000000602082015250565b60006127e5602c8361223f565b91506127f082612789565b604082019050919050565b60006020820190508181036000830152612814816127d8565b9050919050565b7f4552433732313a20617070726f76616c20746f2063757272656e74206f776e6560008201527f7200000000000000000000000000000000000000000000000000000000000000602082015250565b600061287760218361223f565b91506128828261281b565b604082019050919050565b600060208201905081810360008301526128a68161286a565b9050919050565b7f4552433732313a20617070726f76652063616c6c6572206973206e6f74206f7760008201527f6e6572206e6f7220617070726f76656420666f7220616c6c0000000000000000602082015250565b600061290960388361223f565b9150612914826128ad565b604082019050919050565b60006020820190508181036000830152612938816128fc565b9050919050565b7f4552433732313a207472616e736665722063616c6c6572206973206e6f74206f60008201527f776e6572206e6f7220617070726f766564000000000000000000000000000000602082015250565b600061299b60318361223f565b91506129a68261293f565b604082019050919050565b600060208201905081810360008301526129ca8161298e565b9050919050565b7f455243373231456e756d657261626c653a206f776e657220696e646578206f7560008201527f74206f6620626f756e6473000000000000000000000000000000000000000000602082015250565b6000612a2d602b8361223f565b9150612a38826129d1565b604082019050919050565b60006020820190508181036000830152612a5c81612a20565b9050919050565b7f4e487b7100000000000000000000000000000000000000000000000000000000600052601160045260246000fd5b6000612a9d826122ef565b9150612aa8836122ef565b9250827fffffffffffffffffffffffffffffffffffffffffffffffffffffffffffffffff03821115612add57612adc612a63565b5b828201905092915050565b7f4d6178206c696d69740000000000000000000000000000000000000000000000600082015250565b6000612b1e60098361223f565b9150612b2982612ae8565b602082019050919050565b60006020820190508181036000830152612b4d81612b11565b9050919050565b7f53616c6520656e64000000000000000000000000000000000000000000000000600082015250565b6000612b8a60088361223f565b9150612b9582612b54565b602082019050919050565b60006020820190508181036000830152612bb981612b7d565b9050919050565b6000612bcb826122ef565b9150612bd6836122ef565b9250817fffffffffffffffffffffffffffffffffffffffffffffffffffffffffffffffff0483118215151615612c0f57612c0e612a63565b5b828202905092915050565b7f56616c75652062656c6f77207072696365000000000000000000000000000000600082015250565b6000612c5060118361223f565b9150612c5b82612c1a565b602082019050919050565b60006020820190508181036000830152612c7f81612c43565b9050919050565b6000612c91826122ef565b91507fffffffffffffffffffffffffffffffffffffffffffffffffffffffffffffffff821415612cc457612cc3612a63565b5b600182019050919050565b7f455243373231456e756d657261626c653a20676c6f62616c20696e646578206f60008201527f7574206f6620626f756e64730000000000000000000000000000000000000000602082015250565b6000612d2b602c8361223f565b9150612d3682612ccf565b604082019050919050565b60006020820190508181036000830152612d5a81612d1e565b9050919050565b7f4e487b7100000000000000000000000000000000000000000000000000000000600052603260045260246000fd5b7f4552433732313a206f776e657220717565727920666f72206e6f6e657869737460008201527f656e7420746f6b656e0000000000000000000000000000000000000000000000602082015250565b6000612dec60298361223f565b9150612df782612d90565b604082019050919050565b60006020820190508181036000830152612e1b81612ddf565b9050919050565b7f4552433732313a2062616c616e636520717565727920666f7220746865207a6560008201527f726f206164647265737300000000000000000000000000000000000000000000602082015250565b6000612e7e602a8361223f565b9150612e8982612e22565b604082019050919050565b60006020820190508181036000830152612ead81612e71565b9050919050565b600081905092915050565b50565b6000612ecf600083612eb4565b9150612eda82612ebf565b600082019050919050565b6000612ef082612ec2565b9150819050919050565b7f5472616e73666572206661696c65642e00000000000000000000000000000000600082015250565b6000612f3060108361223f565b9150612f3b82612efa565b602082019050919050565b60006020820190508181036000830152612f5f81612f23565b9050919050565b7f4552433732314d657461646174613a2055524920717565727920666f72206e6f60008201527f6e6578697374656e7420746f6b656e0000000000000000000000000000000000602082015250565b6000612fc2602f8361223f565b9150612fcd82612f66565b604082019050919050565b60006020820190508181036000830152612ff181612fb5565b9050919050565b600081905092915050565b600061300e82612234565b6130188185612ff8565b9350613028818560208601612250565b80840191505092915050565b60006130408285613003565b915061304c8284613003565b91508190509392505050565b7f4552433732313a206f70657261746f7220717565727920666f72206e6f6e657860008201527f697374656e7420746f6b656e0000000000000000000000000000000000000000602082015250565b60006130b4602c8361223f565b91506130bf82613058565b604082019050919050565b600060208201905081810360008301526130e3816130a7565b9050919050565b7f4552433732313a207472616e736665722066726f6d20696e636f72726563742060008201527f6f776e6572000000000000000000000000000000000000000000000000000000602082015250565b600061314660258361223f565b9150613151826130ea565b604082019050919050565b6000602082019050818103600083015261317581613139565b9050919050565b7f4552433732313a207472616e7366657220746f20746865207a65726f2061646460008201527f7265737300000000000000000000000000000000000000000000000000000000602082015250565b60006131d860248361223f565b91506131e38261317c565b604082019050919050565b60006020820190508181036000830152613207816131cb565b9050919050565b6000613219826122ef565b9150613224836122ef565b92508282101561323757613236612a63565b5b828203905092915050565b7f4552433732313a20617070726f766520746f2063616c6c657200000000000000600082015250565b600061327860198361223f565b915061328382613242565b602082019050919050565b600060208201905081810360008301526132a78161326b565b9050919050565b7f4552433732313a207472616e7366657220746f206e6f6e20455243373231526560008201527f63656976657220696d706c656d656e7465720000000000000000000000000000602082015250565b600061330a60328361223f565b9150613315826132ae565b604082019050919050565b60006020820190508181036000830152613339816132fd565b9050919050565b7f4e487b7100000000000000000000000000000000000000000000000000000000600052601260045260246000fd5b600061337a826122ef565b9150613385836122ef565b92508261339557613394613340565b5b828204905092915050565b60006133ab826122ef565b91506133b6836122ef565b9250826133c6576133c5613340565b5b828206905092915050565b600081519050919050565b600082825260208201905092915050565b60006133f8826133d1565b61340281856133dc565b9350613412818560208601612250565b61341b81612283565b840191505092915050565b600060808201905061343b6000830187612384565b6134486020830186612384565b613455604083018561241a565b818103606083015261346781846133ed565b905095945050505050565b600081519050613481816121a5565b92915050565b60006020828403121561349d5761349c61216f565b5b60006134ab84828501613472565b91505092915050565b7f4e487b7100000000000000000000000000000000000000000000000000000000600052603160045260246000fd5b7f4552433732313a206d696e7420746f20746865207a65726f2061646472657373600082015250565b600061351960208361223f565b9150613524826134e3565b602082019050919050565b600060208201905081810360008301526135488161350c565b9050919050565b7f4552433732313a20746f6b656e20616c7265616479206d696e74656400000000600082015250565b6000613585601c8361223f565b91506135908261354f565b602082019050919050565b600060208201905081810360008301526135b481613578565b905091905056fea2646970667358221220b605d6000305e83cc50e90464d799e37ffd274afa13a67c5f52d9301b9ad91a964736f6c63430008080033",
  "immutableReferences": {},
  "source": "// SPDX-License-Identifier: MIT\r\npragma solidity 0.8.8;\r\n\r\nimport \"@openzeppelin/contracts/token/ERC721/ERC721.sol\";\r\nimport \"@openzeppelin/contracts/token/ERC721/extensions/ERC721Enumerable.sol\";\r\nimport \"@openzeppelin/contracts/utils/Counters.sol\";\r\n\r\ncontract MyNFTCollection is ERC721Enumerable {\r\n    uint256 public MAX_ELEMENTS = 5;\r\n    uint256 public PRICE = 0.01 ether;\r\n    address public CREATOR = 0xE85513007cb0D8Aa90e7950E8Ba3E1Ed6D5a0C79;\r\n    uint256 public token_count;\r\n    using Counters for Counters.Counter;\r\n    Counters.Counter private _tokenIdTracker;\r\n\r\n    constructor() ERC721(\"My NFT\", \"MNFT\") {}\r\n\r\n    function _baseURI() internal view virtual override returns (string memory) {\r\n        return \"sitedacolecao\";\r\n    }\r\n\r\n    function _totalSupply() internal view returns (uint) {\r\n        return _tokenIdTracker.current();\r\n    }\r\n\r\n    function totalMint() public view returns (uint256) {\r\n        return _totalSupply();\r\n    }\r\n\r\n    function mint(address _to, uint256 _count) public payable {\r\n        uint256 total = _totalSupply();\r\n        require(total + _count <= MAX_ELEMENTS, \"Max limit\");\r\n        require(total <= MAX_ELEMENTS, \"Sale end\");\r\n        require(msg.value >= PRICE*_count, \"Value below price\");\r\n\r\n        for (uint256 i = 0; i < _count; i++) {\r\n            _mintAnElement(_to);\r\n        }\r\n    }\r\n\r\n    function _mintAnElement(address _to) private {\r\n        uint id = _totalSupply();\r\n        _tokenIdTracker.increment();\r\n        _safeMint(_to, id);\r\n    }\r\n\r\n    function withdrawAll() public {\r\n        (bool success, ) = CREATOR.call{value:address(this).balance}(\"\");\r\n        require(success, \"Transfer failed.\");\r\n    }\r\n}",
  "sourcePath": "C:\\Users\\Samae\\MyNFTCollection\\contracts\\MyNFTCollection.sol",
  "compiler": {
    "name": "solc",
    "version": "0.8.8+commit.dddeac2f.Emscripten.clang"
  },
  "schemaVersion": "3.4.5",
  "updatedAt": "2022-02-21T20:33:09.085Z",
  "networkType": "ethereum",
  "devdoc": {
    "kind": "dev",
    "methods": {
      "approve(address,uint256)": {
        "details": "See {IERC721-approve}."
      },
      "balanceOf(address)": {
        "details": "See {IERC721-balanceOf}."
      },
      "getApproved(uint256)": {
        "details": "See {IERC721-getApproved}."
      },
      "isApprovedForAll(address,address)": {
        "details": "See {IERC721-isApprovedForAll}."
      },
      "name()": {
        "details": "See {IERC721Metadata-name}."
      },
      "ownerOf(uint256)": {
        "details": "See {IERC721-ownerOf}."
      },
      "safeTransferFrom(address,address,uint256)": {
        "details": "See {IERC721-safeTransferFrom}."
      },
      "safeTransferFrom(address,address,uint256,bytes)": {
        "details": "See {IERC721-safeTransferFrom}."
      },
      "setApprovalForAll(address,bool)": {
        "details": "See {IERC721-setApprovalForAll}."
      },
      "supportsInterface(bytes4)": {
        "details": "See {IERC165-supportsInterface}."
      },
      "symbol()": {
        "details": "See {IERC721Metadata-symbol}."
      },
      "tokenByIndex(uint256)": {
        "details": "See {IERC721Enumerable-tokenByIndex}."
      },
      "tokenOfOwnerByIndex(address,uint256)": {
        "details": "See {IERC721Enumerable-tokenOfOwnerByIndex}."
      },
      "tokenURI(uint256)": {
        "details": "See {IERC721Metadata-tokenURI}."
      },
      "totalSupply()": {
        "details": "See {IERC721Enumerable-totalSupply}."
      },
      "transferFrom(address,address,uint256)": {
        "details": "See {IERC721-transferFrom}."
      }
    },
    "version": 1
  },
  "userdoc": {
    "kind": "user",
    "methods": {},
    "version": 1
  }
}